:100000003CC098C155C054C053C052C051C050C02C
:100010004FC04EC04DC04CC04BC04AC049C048C084
:1000200047C046C045C009021900010100806409AB
:1000300004000001000000000705810308006412AD
:10004000011001FF000008C016E8030001010200D2
:10005000010E034100560052003000300032001003
:100060000356006C006100640061007300740004BA
:10007000030904EEEEEEEEEEEEEE11241FBECFE528
:10008000D4E0DEBFCDBF10E0A0E6B0E0E8E6F7E0E8
:1000900002C005900D92A436B107D9F710E0A4E68E
:1000A000B0E001C01D92A53AB107E1F7C2D25AC330
:1000B000A7CFCF93C62F2091740024FF07C02091B3
:1000C000750038E823272093750003C02AE52093A4
:1000D0007400DC01E6E7F0E09C2F9E0F8D91819388
:1000E000892F8E1B1816D4F36C2F86E790E01ED153
:1000F000CC5FC0937400CF910895CF93DF9380912C
:100100008500835087FD93C09091820020918100EB
:100110002D3209F08AC0883009F087C0CCE0D0E0E9
:10012000C91BD109C757DF4F83EC809369008AE56B
:1001300080936100109264008881807619F0CE016E
:100140002DD26AC09A81109272008981811106C0F5
:100150001092730022E730E082E05AC0853019F433
:100160009093860052C08630D1F58B81813041F466
:100170008FE390E0909384008093830082E12BC012
:10018000823041F486E290E0909384008093830073
:1001900089E121C08330F1F4911108C08FE690E02D
:1001A000909384008093830084E015C0913041F4E3
:1001B0008FE590E0909384008093830080E10BC0F2
:1001C000923041F481E590E0909384008093830025
:1001D0008EE001C080E090E4909364001DC0883000
:1001E00069F0893019F4909388000FC08A3049F083
:1001F0008B3059F48BE48093750007C028E830E019
:1002000002C022E730E081E003C022E730E080E076
:1002100030938400209383009F81911104C09E81BC
:10022000981708F4892F80936000109285008091C0
:10023000610084FF4CC0809160008F3F09F447C08B
:10024000C82F893008F0C8E08C1B80936000809133
:10025000690098E8892780936900CC2361F1809137
:100260008300909184002091640026FF12C0AAE6CA
:10027000B0E029E630E020953095280F391F4C2F4B
:100280004A0FF901EA0FFB1FE491ED934A13F9CFEE
:1002900009C0EAE6F0E0DC012C2F2E0F3D913193EE
:1002A0002E13FCCF01962FEF2C0F820F911D9093F0
:1002B0008400809383006C2F8AE690E037D0CC5F77
:1002C000CC3019F08FEF80936000C093610084E11F
:1002D00090B3967031F48150D9F710928600109245
:1002E0008000DF91CF91089585B7826085BF8BB77D
:1002F00080648BBF8BE4809375008AE580937400E3
:100300000895A82FB92F80E090E041E050EA609571
:1003100030E009C02D9182279795879510F08427AA
:100320009527305EC8F36F5FA8F30895EADF8D93D9
:100330009D930895CF93CFB7CF93DF93C395819BC0
:10034000E9F7819B0BC0819B09C0819B07C0819B02
:1003500005C0819B03C0819B01C08BC06F93C0917E
:100360008200DD27C757DF4F2F9365E5819B03C0D0
:100370002F916F91E6CF0F931F934F9320E040E1B1
:100380005F9300B3067001FB27F93F9350E03BE019
:1003900039C0167040642F77012F5F5F1EC0406820
:1003A00010B316702F7752501FC0406400B32F77E0
:1003B0000670D1F15F5F00C023C0406210B32F7799
:1003C000167091F15F5F00C025C006701027515074
:1003D00012F45D5F0000115027952C3F10B3C8F652
:1003E00016700127015027952C3FC8F642274993E4
:1003F00000B3067010274F73115027952C3FA8F6B5
:100400004695469510B3167079F00127015027954F
:100410002C3F98F66B5A60F3315000B3B0F600C031
:1004200010E41ABF002719C03B503195C31BD040C0
:1004300010E41ABF0881033C09F10B34F9F0209154
:1004400080001981110F1213EDCF4A81441F093624
:1004500051F10D3211F0013E29F7009387003F91D1
:100460005F914F911F910F912F916F91CAB7C6FD68
:1004700065CFDF91CF91CFBFCF91189520918700A5
:10048000222369F310918500112391F5343092F104
:100490003093850020938100109182003BE0311B56
:1004A0003093820027C00091850001300CF50AE5E9
:1004B0004F7049F43091610034FD1DC0009361001C
:1004C000C9E6D0E01CC03091740034FD14C0009324
:1004D0007400C5E7D0E013C0052710E000C000009D
:1004E00002BB1AC0052710E0221F1DC010E021C06A
:1004F0004AE502C032ED432FC4E1D0E032E011B34F
:100500001660919A02B311BB56E020E865E320FF24
:10051000052702BB279517951C3FF0F66695B8F79F
:10052000B1F720FF052702BB279517951C3FD0F692
:100530002795179517FF052700001C3F02BBB0F653
:1005400029913A9519F7097F10918600110FC6512C
:10055000D04002BB11F01093800010E41ABF02607B
:1005600011B3197F402F497F54E05A95F1F702BB30
:1005700011BB42BB74CF43B321E030E002C0220F75
:10058000331F8A95E2F750E04223532381E090E045
:100590004217530711F480E090E00895CF93DF9362
:1005A0001F92CDB7DEB7FC018181833019F5198226
:1005B00041E050E060E070E0CE010196ADD0809166
:1005C000A1009091A2008093650081E0999980E05C
:1005D0008093660081E09A9980E08093670089812A
:1005E0008093680085E690E0909384008093830078
:1005F00084E001C080E00F90DF91CF9108951F92B9
:100600000F920FB60F92112412BE0F900FBE0F90D3
:100610001F9018951F920F920FB60F9211240F90F2
:100620000FBE0F901F901895089589B78A7F89BFD4
:100630000895CF93DF931F92CDB7DEB781E084BBDF
:100640001092A2001092A1001092A3001092A0009C
:1006500010929F0080E186BBF894789408E110E046
:100660008EE0B82E97E0A92E23E0E22EF12C32E0A6
:10067000C32ED12C8091620090916300823091054D
:1006800069F083309105B9F0019709F039C09B9961
:1006900037C0D0926300C092620032C0A982F0924B
:1006A0006300E092620041E050E060E070E0CE0163
:1006B000019642D025C080919F009091A000892B87
:1006C000E9F4F8940FB6F894A89501BD0FBEB1BC3B
:1006D0000BDE899A80E0815041F0A895EFE9FFE0B8
:1006E0003197F1F700C00000F6CF8998789481E047
:1006F00090E09093A00080939F0002C0A895FDDC3D
:100700008091A1009091A200059709F0B3CF1092BB
:10071000A2001092A100AECFDC01CB01FC01E19957
:10072000FECF06C0FFBBEEBBE09A31960DB20D9234
:1007300041505040B8F70895DC01CB0102C02D9123
:1007400005D041505040D8F70895262FE199FECFAB
:100750009FBB8EBB2DBB0FB6F894E29AE19A0FBEF9
:0807600001960895F894FFCF03
:04076800FF5A010033
:00000001FF
