:1000000038C0B3C151C050C07EC572C54DC04CC0D0
:100010004BC04AC049C048C047C046C045C009029D
:10002000190001010080190904000001000000000E
:100030000705810308006412011001FF000008C0D9
:1000400016E8030001010200010E034100560052B0
:1000500000300030003100100356006C0061006475
:100060000061007300740004030904EEEEEEEEEE8E
:10007000EEEE11241FBECFE5D2E0DEBFCDBF10E013
:10008000A0E6B0E0EAE6FDE002C005900D92A436DD
:10009000B107D9F710E0A4E6B0E001C01D92AF3B74
:1000A000B107E1F7AED55FC6ABCFCF93C62F209196
:1000B000880024FF07C02091890038E82327209377
:1000C000890003C02AE520938800DC01EAE8F0E01B
:1000D0009C2F9E0F8D918193892F8E1B1816D4F320
:1000E0006C2F8AE890E02AD1CC5FC0938800CF9132
:1000F0000895CF93DF9380919900835087FD93C03B
:1001000090919600209195002D3209F08AC0883098
:1001100009F087C0CCE0D0E0C91BD109C356DF4F3E
:1001200083EC80937D008AE58093610010926500E6
:100130008881807619F0CE01B0D46AC09A8110927D
:1001400086008981811106C01092870026E830E080
:1001500082E05AC0853019F490939A0052C08630DC
:10016000D1F58B81813041F487E390E09093980042
:100170008093970082E12BC0823041F48EE190E0C1
:10018000909398008093970089E121C08330F1F427
:10019000911108C087E690E09093980080939700B3
:1001A00084E015C0913041F487E590E09093980089
:1001B0008093970080E10BC0923041F489E490E095
:1001C00090939800809397008EE001C080E090E4C7
:1001D000909365001DC0883069F0893019F49093C0
:1001E0009C000FC08A3049F08B3059F48BE4809327
:1001F000890007C02CE930E002C026E830E081E049
:1002000003C026E830E080E0309398002093970008
:100210009F81911104C09E81981708F4892F8093C3
:100220006000109299008091610084FF4CC0809121
:1002300060008F3F09F447C0C82F893008F0C8E03C
:100240008C1B8093600080917D0098E889278093C3
:100250007D00CC2361F180919700909198002091CE
:10026000650026FF12C0AEE7B0E02DE730E0209534
:100270003095280F391F4C2F4A0FF901EA0FFB1F49
:10028000E491ED934A13F9CF09C0EEE7F0E0DC0109
:100290002C2F2E0F3D9131932E13FCCF01962FEF73
:1002A0002C0F820F911D90939800809397006C2FD4
:1002B0008EE790E043D0CC5FCC3019F08FEF809385
:1002C0006000C093610084E196B3967031F4815070
:1002D000D9F710929A0010929400C1E08111C0E009
:1002E000809164008C1729F0C11101C03FD4C093E4
:1002F0006400DF91CF91089585B7836085BF8BB788
:1003000080648BBF8BE4809389008AE580938800AA
:100310000895A82FB92F80E090E041E050EA609561
:1003200030E009C02D9182279795879510F084279A
:100330009527305EC8F36F5FA8F30895EADF8D93C9
:100340009D930895A6E088279927AA9569F00197BB
:10035000E1F3B199FCCFB19BFECF81E09927A6B321
:10036000019611F0A670D9F70895CF93CFB7CF9328
:10037000C395B19BE9F7B19B0BC0B19B09C0B19B81
:1003800007C0B19B05C0B19B03C0B19B01C0D5C0E4
:100390000F92DF93C0919600DD27C356DF4F012EE9
:1003A000B19B03C0DF910F90E6CF2F930F931F9364
:1003B0004F932FEF4F6F06B301FB20F95F933F93ED
:1003C00050E03BE065C016B30126502951FDC895A9
:1003D00056B3012701FB25F92F7306B3B1F050275F
:1003E000102711FB26F906B22230F0F000C016B338
:1003F000012701FB27F90126502906B22430E8F530
:100400004F77206816B30000F6CF50274F7D20624B
:1004100006B2102F000000C006B300265029102796
:1004200011FB26F906B2E2CF4F7B06B3206400C071
:10043000DACF01265029167006B269F14E7F21608D
:10044000012F16B328C0002650294D7F06B2226026
:10045000102F29C0012650294B7F06B22460012F9E
:100460002DC016B301265029477F2860000006B230
:100470002EC04F7E06B3206130C0422706B3499399
:1004800000265029102706B24FEF11FB20F9297FD3
:1004900016B379F2167059F10126502906B20127D8
:1004A00001FB21F9237F06B371F200265029315058
:1004B000D0F006B2102711FB22F9277E16B351F2B5
:1004C00001265029012701FB06B223F92F7C49F2AE
:1004D000000006B3102711FB24F90026502906B2AC
:1004E0002F7939F270CF10E41ABF002719C03B50A2
:1004F0003195C31BD04010E41ABF0881033C09F1B9
:100500000B34F9F0209194001981110F1213EDCFE3
:100510004A81441F093651F10D3211F0013E29F78D
:1005200000939B003F915F914F911F910F912F91ED
:10053000DF910F90CAB7C6FD1BCFCF91CFBFCF9130
:10054000189520919B00222369F3109199001123A3
:1005500079F534307AF13093990020939500109119
:1005600096003BE0311B3093960024C00091990027
:100570000130F4F40AE54F7049F43091610034FD24
:100580001AC000936100CDE7D0E019C03091880017
:1005900034FD11C000938800C9E8D0E010C00527E1
:1005A00010E000C021C0052710E0C89508BB14C0AA
:1005B0003AE501C032ED032EC0E0D0E032E017B3DF
:1005C0001660C19A08B317BB56E020E84FEF20FF32
:1005D000052708BB279517951C3F28F700004552B3
:1005E000B0F720FF0527279508BB17951C3FB8F6E5
:1005F00029913A9561F7097F10919A00110F08BB74
:10060000C250D04011F01093940010E41ABF026061
:1006100017B3197F402F497F54E05A95F1F708BB73
:1006200017BB48BB7FCF8FB18093B3008DB1809350
:10063000B5008EB18093B60008958091B3008FB954
:100640008091B5008DB98091B6008EB90895C09A99
:10065000C29ABA9AB89AC09AC29A2FE98AE592E3E6
:10066000215080409040E1F700C00000DCDF8FEFB8
:100670008FB98AE28DB980EF8EB91092B4000895D7
:10068000BA98B898C098C298D8CF8091B40008950D
:100690008EB98BE29BE19A95F1F700C08DB9B29BC0
:1006A000FECF96E19A95F1F78DB9769BF3CF8BE16A
:1006B0008A95F1F700C08FB19FEF9FB9B89A08955E
:1006C000B2DF8FEF8FB980E28DB982E08093B40002
:1006D000C09AC29ABA9AB89AC09AC29A2FE98AE581
:1006E00092E3215080409040E1F700C00000C298A2
:1006F000C0982FE98AE592E3215080409040E1F7CD
:1007000000C00000C09AC29A2FE98AE592E3215006
:1007100080409040E1F700C00000C298C0982FE9E7
:100720008AE592E3215080409040E1F700C000004C
:10073000C09AC29A2FE98AE592E321508040904006
:10074000E1F700C00000C298C0982FE98AE592E363
:10075000215080409040E1F700C00000C29AC29B47
:10076000FECF2FE98AE592E3215080409040E1F7E7
:1007700000C00000C0982FE98AE592E32150804034
:100780009040E1F700C00000C298C09A779905C078
:1007900083E08093B40080E008951092B40081E07B
:1007A0000895C098C29AB29BFECF86E18A95F1F770
:1007B000C09A8BE18A95F1F700C09EB1892F8072B3
:1007C00095FD04C094E09093B400089581E00895ED
:1007D000AF92BF92CF92DF92EF92FF920F931F934F
:1007E000CF93DF93EC01C62E8091B400816080939B
:1007F000B400988190FD03C082608093B40060DFF4
:10080000982F882309F458C0FC2C8E01BB24BA947D
:10081000AA24A3942091B4002370C8010196222336
:1008200071F1C298D82EE92EF80180818FB980EF3E
:100830002FDFB8988EEF2CDF2091B40080FF0AC024
:10084000922F917020FF04C081E08093B40033C0E8
:1008500082E00EC0822F8570843069F488818160C7
:100860008883A092B4002CDF982F811118C08AE0F1
:100870008093B40021C02E7F2093B40013C0B89899
:10088000D82EE92E80EF04DFF8018083F1E0FF121B
:1008900002C0BFB801C01FB88EEFFADE03C0FC2C47
:1008A000DC2EED2EFA9419F00D2D1E2DB3CF79DF2D
:1008B00091E0811101C090E0892FDF91CF911F91CC
:1008C0000F91FF90EF90DF90CF90BF90AF90089581
:1008D000FC0120812E7F208324E02093B40078CF78
:1008E0001092B40075CFB3CE10926800880F809339
:1008F00069000895E0916800E03138F4EF5FE0931B
:100900006800F0E0E759FF4F808308956091680028
:100910006F5F89E690E0E4DF10926800811101C00A
:10092000B4CE80E008951092670060936600880F4F
:100930008160809369006F5F89E690E0D1DF81116B
:1009400001C0A3CE80E00895E0916700EF5FE093DF
:100950006700F0E0E759FF4F8081089580916600BD
:1009600090916700891B08958EB98BE29AE19A9560
:10097000F1F78DB9B29BFECF96E19A95F1F78DB95B
:10098000769BF4CF8AE18A95F1F78FB10895CF92E3
:10099000DF92EF92FF920F931F93CF93DF93EC01BF
:1009A000D62E1092B8001092B700C29AB29BFECF1A
:1009B0008AE18A95F1F7B89ABA9AC09886E18A9541
:1009C000F1F7C2988AE18A95F1F7C09A02E010E047
:1009D000EE24E394F12CCC24CA948091B70090913A
:1009E000B8008130910581F018F00297E9F029C034
:1009F000888180FD05C0F092B800E092B70004C085
:100A00001093B8000093B700C29889918FB980EF16
:100A1000ABDFB8988EEFA8DF80FF04C0C29AC09AFF
:100A200080E01FC0B89A0DC0B89880EF9DDF899311
:100A3000B89A81E0D81202C0CFB801C01FB88EEFBB
:100A400093DFDA9451F6C0988AE18A95F1F7BA9863
:100A5000B29BFECF86E18A95F1F7B898B09BFECFA6
:100A600081E0DF91CF911F910F91FF90EF90DF9088
:100A7000CF90089546B321E030E002C0220F331F2B
:100A80008A95E2F750E04223532381E090E0421739
:100A9000530711F480E090E00895CF93DF9300D0E6
:100AA0001F92CDB7DEB7FC0181818330D1F443E0E2
:100AB00050E060E070E0CE0101962ED189818093F4
:100AC00079008A8180937A008B8180937B001092D9
:100AD0007C0089E790E0909398008093970084E0F1
:100AE00001C080E00F900F900F90DF91CF9108959B
:100AF0001F920F920FB60F92112412BE0F900FBECD
:100B00000F901F9018951F920F920FB60F921124FD
:100B10008F939F938091BD008F5F8093BD00833042
:100B200029F48DE38FBD1092BD0002C08CE38FBD10
:100B30008091BB009091BC0001969093BC00809383
:100B4000BB009F918F910F900FBE0F901F90189533
:100B500012BE8CE38FBD86E089BF85E083BF8FE046
:100B600080BF089589B7897F89BF0895AF92BF92EA
:100B7000CF92DF92EF92FF920F931F93CF93DF9369
:100B8000C12CCFE0D7E22CECE22E26EFF22EC110E2
:100B900002C0D12C02C090E8D92E07E010E080E41A
:100BA000B82E80E090E08433994014F4DB0C01C04F
:100BB000DB18D1BEC7DB853329E0920724F09C0106
:100BC0002453394003C09701281B390B2C173D07CC
:100BD00014F4AD2CE901B694015011090115110569
:100BE00011F7C39482E0C812D2CFA1BEDF91CF919A
:100BF0001F910F91FF90EF90DF90CF90BF90AF903B
:100C00000895CF93DF9300D01F92CDB7DEB7109237
:100C1000BC001092BB001092BD001092BA0010925E
:100C2000B90080E186BBF894789408E110E073E0A5
:100C3000E72EF12CE0EA8E2ECC24C394D12CA2E036
:100C4000AA2EB12C9924939436E0732E41EA642E97
:100C500052E0552E6EE0462E809162009091630026
:100C60008230910581F08330910539F1019709F0C7
:100C700047C0B39945C0B49943C0B0926300A092F5
:100C8000620066DF3DC0F0926300E09262008982FC
:100C90009A827B8263E0CE01019679DE69829A8234
:100CA0005B8263E0CE01019672DE43E050E060E0DB
:100CB00070E0CE01019640D023C08091B9009091A0
:100CC000BA00892BD9F4F8940FB6F894A89501BD11
:100CD0000FBE41BC11DBB99A80E0815041F0A8956C
:100CE000ECE1F0E13197F1F700C00000F6CFB998E0
:100CF0007894D092BA00C092B90002C0A895F9D9F0
:100D00008091BB009091BC00059709F0A5CF10928F
:100D1000BC001092BB0096CFDC01CB01FC01E19935
:100D2000FECF06C0FFBBEEBBE09A31960DB20D922E
:100D300041505040B8F70895DC01CB0102C02D911D
:100D400005D041505040D8F70895262FE199FECFA5
:100D50001CBA9FBB8EBB2DBB0FB6F894E29AE19AEA
:0A0D60000FBE01960895F894FFCF2E
:040D6A00FF5A01002B
:00000001FF
